{
  "_format": "hh-sol-artifact-1",
  "contractName": "Token",
  "sourceName": "contracts/ERC20.sol",
  "abi": [
    {
      "inputs": [
        {
          "internalType": "string",
          "name": "_name",
          "type": "string"
        },
        {
          "internalType": "string",
          "name": "_symbol",
          "type": "string"
        }
      ],
      "stateMutability": "nonpayable",
      "type": "constructor"
    },
    {
      "anonymous": false,
      "inputs": [
        {
          "indexed": true,
          "internalType": "address",
          "name": "owner",
          "type": "address"
        },
        {
          "indexed": true,
          "internalType": "address",
          "name": "spender",
          "type": "address"
        },
        {
          "indexed": false,
          "internalType": "uint256",
          "name": "value",
          "type": "uint256"
        }
      ],
      "name": "Approval",
      "type": "event"
    },
    {
      "anonymous": false,
      "inputs": [
        {
          "indexed": true,
          "internalType": "bytes32",
          "name": "role",
          "type": "bytes32"
        },
        {
          "indexed": true,
          "internalType": "bytes32",
          "name": "previousAdminRole",
          "type": "bytes32"
        },
        {
          "indexed": true,
          "internalType": "bytes32",
          "name": "newAdminRole",
          "type": "bytes32"
        }
      ],
      "name": "RoleAdminChanged",
      "type": "event"
    },
    {
      "anonymous": false,
      "inputs": [
        {
          "indexed": true,
          "internalType": "bytes32",
          "name": "role",
          "type": "bytes32"
        },
        {
          "indexed": true,
          "internalType": "address",
          "name": "account",
          "type": "address"
        },
        {
          "indexed": true,
          "internalType": "address",
          "name": "sender",
          "type": "address"
        }
      ],
      "name": "RoleGranted",
      "type": "event"
    },
    {
      "anonymous": false,
      "inputs": [
        {
          "indexed": true,
          "internalType": "bytes32",
          "name": "role",
          "type": "bytes32"
        },
        {
          "indexed": true,
          "internalType": "address",
          "name": "account",
          "type": "address"
        },
        {
          "indexed": true,
          "internalType": "address",
          "name": "sender",
          "type": "address"
        }
      ],
      "name": "RoleRevoked",
      "type": "event"
    },
    {
      "anonymous": false,
      "inputs": [
        {
          "indexed": true,
          "internalType": "address",
          "name": "from",
          "type": "address"
        },
        {
          "indexed": true,
          "internalType": "address",
          "name": "to",
          "type": "address"
        },
        {
          "indexed": false,
          "internalType": "uint256",
          "name": "value",
          "type": "uint256"
        }
      ],
      "name": "Transfer",
      "type": "event"
    },
    {
      "inputs": [],
      "name": "ADMIN",
      "outputs": [
        {
          "internalType": "bytes32",
          "name": "",
          "type": "bytes32"
        }
      ],
      "stateMutability": "view",
      "type": "function"
    },
    {
      "inputs": [],
      "name": "BURNER",
      "outputs": [
        {
          "internalType": "bytes32",
          "name": "",
          "type": "bytes32"
        }
      ],
      "stateMutability": "view",
      "type": "function"
    },
    {
      "inputs": [],
      "name": "DEFAULT_ADMIN_ROLE",
      "outputs": [
        {
          "internalType": "bytes32",
          "name": "",
          "type": "bytes32"
        }
      ],
      "stateMutability": "view",
      "type": "function"
    },
    {
      "inputs": [],
      "name": "MINTER",
      "outputs": [
        {
          "internalType": "bytes32",
          "name": "",
          "type": "bytes32"
        }
      ],
      "stateMutability": "view",
      "type": "function"
    },
    {
      "inputs": [
        {
          "internalType": "address",
          "name": "owner",
          "type": "address"
        },
        {
          "internalType": "address",
          "name": "spender",
          "type": "address"
        }
      ],
      "name": "allowance",
      "outputs": [
        {
          "internalType": "uint256",
          "name": "",
          "type": "uint256"
        }
      ],
      "stateMutability": "view",
      "type": "function"
    },
    {
      "inputs": [
        {
          "internalType": "address",
          "name": "spender",
          "type": "address"
        },
        {
          "internalType": "uint256",
          "name": "amount",
          "type": "uint256"
        }
      ],
      "name": "approve",
      "outputs": [
        {
          "internalType": "bool",
          "name": "",
          "type": "bool"
        }
      ],
      "stateMutability": "nonpayable",
      "type": "function"
    },
    {
      "inputs": [
        {
          "internalType": "address",
          "name": "account",
          "type": "address"
        }
      ],
      "name": "balanceOf",
      "outputs": [
        {
          "internalType": "uint256",
          "name": "",
          "type": "uint256"
        }
      ],
      "stateMutability": "view",
      "type": "function"
    },
    {
      "inputs": [
        {
          "internalType": "address",
          "name": "_from",
          "type": "address"
        },
        {
          "internalType": "uint256",
          "name": "_value",
          "type": "uint256"
        }
      ],
      "name": "burn",
      "outputs": [],
      "stateMutability": "nonpayable",
      "type": "function"
    },
    {
      "inputs": [],
      "name": "decimals",
      "outputs": [
        {
          "internalType": "uint8",
          "name": "",
          "type": "uint8"
        }
      ],
      "stateMutability": "view",
      "type": "function"
    },
    {
      "inputs": [
        {
          "internalType": "address",
          "name": "spender",
          "type": "address"
        },
        {
          "internalType": "uint256",
          "name": "subtractedValue",
          "type": "uint256"
        }
      ],
      "name": "decreaseAllowance",
      "outputs": [
        {
          "internalType": "bool",
          "name": "",
          "type": "bool"
        }
      ],
      "stateMutability": "nonpayable",
      "type": "function"
    },
    {
      "inputs": [
        {
          "internalType": "bytes32",
          "name": "role",
          "type": "bytes32"
        }
      ],
      "name": "getRoleAdmin",
      "outputs": [
        {
          "internalType": "bytes32",
          "name": "",
          "type": "bytes32"
        }
      ],
      "stateMutability": "view",
      "type": "function"
    },
    {
      "inputs": [
        {
          "internalType": "bytes32",
          "name": "role",
          "type": "bytes32"
        },
        {
          "internalType": "address",
          "name": "account",
          "type": "address"
        }
      ],
      "name": "grantRole",
      "outputs": [],
      "stateMutability": "nonpayable",
      "type": "function"
    },
    {
      "inputs": [
        {
          "internalType": "bytes32",
          "name": "role",
          "type": "bytes32"
        },
        {
          "internalType": "address",
          "name": "account",
          "type": "address"
        }
      ],
      "name": "hasRole",
      "outputs": [
        {
          "internalType": "bool",
          "name": "",
          "type": "bool"
        }
      ],
      "stateMutability": "view",
      "type": "function"
    },
    {
      "inputs": [
        {
          "internalType": "address",
          "name": "spender",
          "type": "address"
        },
        {
          "internalType": "uint256",
          "name": "addedValue",
          "type": "uint256"
        }
      ],
      "name": "increaseAllowance",
      "outputs": [
        {
          "internalType": "bool",
          "name": "",
          "type": "bool"
        }
      ],
      "stateMutability": "nonpayable",
      "type": "function"
    },
    {
      "inputs": [
        {
          "internalType": "address",
          "name": "_to",
          "type": "address"
        },
        {
          "internalType": "uint256",
          "name": "_value",
          "type": "uint256"
        }
      ],
      "name": "mint",
      "outputs": [],
      "stateMutability": "nonpayable",
      "type": "function"
    },
    {
      "inputs": [],
      "name": "name",
      "outputs": [
        {
          "internalType": "string",
          "name": "",
          "type": "string"
        }
      ],
      "stateMutability": "view",
      "type": "function"
    },
    {
      "inputs": [
        {
          "internalType": "bytes32",
          "name": "role",
          "type": "bytes32"
        },
        {
          "internalType": "address",
          "name": "account",
          "type": "address"
        }
      ],
      "name": "renounceRole",
      "outputs": [],
      "stateMutability": "nonpayable",
      "type": "function"
    },
    {
      "inputs": [
        {
          "internalType": "bytes32",
          "name": "role",
          "type": "bytes32"
        },
        {
          "internalType": "address",
          "name": "account",
          "type": "address"
        }
      ],
      "name": "revokeRole",
      "outputs": [],
      "stateMutability": "nonpayable",
      "type": "function"
    },
    {
      "inputs": [
        {
          "internalType": "bytes4",
          "name": "interfaceId",
          "type": "bytes4"
        }
      ],
      "name": "supportsInterface",
      "outputs": [
        {
          "internalType": "bool",
          "name": "",
          "type": "bool"
        }
      ],
      "stateMutability": "view",
      "type": "function"
    },
    {
      "inputs": [],
      "name": "symbol",
      "outputs": [
        {
          "internalType": "string",
          "name": "",
          "type": "string"
        }
      ],
      "stateMutability": "view",
      "type": "function"
    },
    {
      "inputs": [],
      "name": "totalSupply",
      "outputs": [
        {
          "internalType": "uint256",
          "name": "",
          "type": "uint256"
        }
      ],
      "stateMutability": "view",
      "type": "function"
    },
    {
      "inputs": [
        {
          "internalType": "address",
          "name": "recipient",
          "type": "address"
        },
        {
          "internalType": "uint256",
          "name": "amount",
          "type": "uint256"
        }
      ],
      "name": "transfer",
      "outputs": [
        {
          "internalType": "bool",
          "name": "",
          "type": "bool"
        }
      ],
      "stateMutability": "nonpayable",
      "type": "function"
    },
    {
      "inputs": [
        {
          "internalType": "address",
          "name": "sender",
          "type": "address"
        },
        {
          "internalType": "address",
          "name": "recipient",
          "type": "address"
        },
        {
          "internalType": "uint256",
          "name": "amount",
          "type": "uint256"
        }
      ],
      "name": "transferFrom",
      "outputs": [
        {
          "internalType": "bool",
          "name": "",
          "type": "bool"
        }
      ],
      "stateMutability": "nonpayable",
      "type": "function"
    }
  ],
  "bytecode": "0x60806040523480156200001157600080fd5b506040516200329e3803806200329e833981810160405281019062000037919062000646565b818181600390805190602001906200005192919062000518565b5080600490805190602001906200006a92919062000518565b505050620000af33620000826200018d60201b60201c565b60ff16600a6200009391906200086a565b62989680620000a39190620009a7565b6200019660201b60201c565b620000e17fdf8b4c520ffe197c5343c6f5aec59570151ef9a492f2c624fd45ddde6135ec42336200030f60201b60201c565b620001337ff0887ba65ee2024ea881d91b74c2450ef19e1557f03bed3ea9f16b037cbe2dc97fdf8b4c520ffe197c5343c6f5aec59570151ef9a492f2c624fd45ddde6135ec426200032560201b60201c565b620001857f9667e80708b6eeeb0053fa0cca44e028ff548e2a9f029edfeac87c118b08b7c87fdf8b4c520ffe197c5343c6f5aec59570151ef9a492f2c624fd45ddde6135ec426200032560201b60201c565b505062000b9c565b60006012905090565b600073ffffffffffffffffffffffffffffffffffffffff168273ffffffffffffffffffffffffffffffffffffffff16141562000209576040517f08c379a0000000000000000000000000000000000000000000000000000000008152600401620002009062000703565b60405180910390fd5b6200021d600083836200038960201b60201c565b8060026000828254620002319190620007b2565b92505081905550806000808473ffffffffffffffffffffffffffffffffffffffff1673ffffffffffffffffffffffffffffffffffffffff1681526020019081526020016000206000828254620002889190620007b2565b925050819055508173ffffffffffffffffffffffffffffffffffffffff16600073ffffffffffffffffffffffffffffffffffffffff167fddf252ad1be2c89b69c2b068fc378daa952ba7f163c4a11628f55a4df523b3ef83604051620002ef919062000725565b60405180910390a36200030b600083836200038e60201b60201c565b5050565b6200032182826200039360201b60201c565b5050565b600062000338836200048560201b60201c565b90508160056000858152602001908152602001600020600101819055508181847fbd79b86ffe0ab8e8776151514217cd7cacd52c909f66475c3af44e129f0b00ff60405160405180910390a4505050565b505050565b505050565b620003a58282620004a560201b60201c565b620004815760016005600084815260200190815260200160002060000160008373ffffffffffffffffffffffffffffffffffffffff1673ffffffffffffffffffffffffffffffffffffffff16815260200190815260200160002060006101000a81548160ff021916908315150217905550620004266200051060201b60201c565b73ffffffffffffffffffffffffffffffffffffffff168173ffffffffffffffffffffffffffffffffffffffff16837f2f8788117e7eff1d82e926ec794901d17c78024a50270940304540a733656f0d60405160405180910390a45b5050565b600060056000838152602001908152602001600020600101549050919050565b60006005600084815260200190815260200160002060000160008373ffffffffffffffffffffffffffffffffffffffff1673ffffffffffffffffffffffffffffffffffffffff16815260200190815260200160002060009054906101000a900460ff16905092915050565b600033905090565b828054620005269062000a48565b90600052602060002090601f0160209004810192826200054a576000855562000596565b82601f106200056557805160ff191683800117855562000596565b8280016001018555821562000596579182015b828111156200059557825182559160200191906001019062000578565b5b509050620005a59190620005a9565b5090565b5b80821115620005c4576000816000905550600101620005aa565b5090565b6000620005df620005d9846200076b565b62000742565b905082815260208101848484011115620005fe57620005fd62000b46565b5b6200060b84828562000a12565b509392505050565b600082601f8301126200062b576200062a62000b41565b5b81516200063d848260208601620005c8565b91505092915050565b6000806040838503121562000660576200065f62000b50565b5b600083015167ffffffffffffffff81111562000681576200068062000b4b565b5b6200068f8582860162000613565b925050602083015167ffffffffffffffff811115620006b357620006b262000b4b565b5b620006c18582860162000613565b9150509250929050565b6000620006da601f83620007a1565b9150620006e78262000b73565b602082019050919050565b620006fd8162000a08565b82525050565b600060208201905081810360008301526200071e81620006cb565b9050919050565b60006020820190506200073c6000830184620006f2565b92915050565b60006200074e62000761565b90506200075c828262000a7e565b919050565b6000604051905090565b600067ffffffffffffffff82111562000789576200078862000b12565b5b620007948262000b55565b9050602081019050919050565b600082825260208201905092915050565b6000620007bf8262000a08565b9150620007cc8362000a08565b9250827fffffffffffffffffffffffffffffffffffffffffffffffffffffffffffffffff0382111562000804576200080362000ab4565b5b828201905092915050565b6000808291508390505b6001851115620008615780860481111562000839576200083862000ab4565b5b6001851615620008495780820291505b8081029050620008598562000b66565b945062000819565b94509492505050565b6000620008778262000a08565b9150620008848362000a08565b9250620008b37fffffffffffffffffffffffffffffffffffffffffffffffffffffffffffffffff8484620008bb565b905092915050565b600082620008cd5760019050620009a0565b81620008dd5760009050620009a0565b8160018114620008f65760028114620009015762000937565b6001915050620009a0565b60ff84111562000916576200091562000ab4565b5b8360020a91508482111562000930576200092f62000ab4565b5b50620009a0565b5060208310610133831016604e8410600b8410161715620009715782820a9050838111156200096b576200096a62000ab4565b5b620009a0565b6200098084848460016200080f565b925090508184048111156200099a576200099962000ab4565b5b81810290505b9392505050565b6000620009b48262000a08565b9150620009c18362000a08565b9250817fffffffffffffffffffffffffffffffffffffffffffffffffffffffffffffffff0483118215151615620009fd57620009fc62000ab4565b5b828202905092915050565b6000819050919050565b60005b8381101562000a3257808201518184015260208101905062000a15565b8381111562000a42576000848401525b50505050565b6000600282049050600182168062000a6157607f821691505b6020821081141562000a785762000a7762000ae3565b5b50919050565b62000a898262000b55565b810181811067ffffffffffffffff8211171562000aab5762000aaa62000b12565b5b80604052505050565b7f4e487b7100000000000000000000000000000000000000000000000000000000600052601160045260246000fd5b7f4e487b7100000000000000000000000000000000000000000000000000000000600052602260045260246000fd5b7f4e487b7100000000000000000000000000000000000000000000000000000000600052604160045260246000fd5b600080fd5b600080fd5b600080fd5b600080fd5b6000601f19601f8301169050919050565b60008160011c9050919050565b7f45524332303a206d696e7420746f20746865207a65726f206164647265737300600082015250565b6126f28062000bac6000396000f3fe608060405234801561001057600080fd5b506004361061014d5760003560e01c806339509351116100c3578063a217fddf1161007c578063a217fddf146103c6578063a457c2d7146103e4578063a9059cbb14610414578063d547741f14610444578063dd62ed3e14610460578063fe6d8124146104905761014d565b806339509351146102e057806340c10f191461031057806370a082311461032c57806391d148541461035c57806395d89b411461038c5780639dc29fac146103aa5761014d565b806323b872dd1161011557806323b872dd1461020c578063248a9ca31461023c5780632a0acc6a1461026c5780632f2ff15d1461028a578063313ce567146102a657806336568abe146102c45761014d565b806301ffc9a71461015257806306fdde0314610182578063095ea7b3146101a0578063118c4f13146101d057806318160ddd146101ee575b600080fd5b61016c60048036038101906101679190611aaa565b6104ae565b6040516101799190611da1565b60405180910390f35b61018a610528565b6040516101979190611dd7565b60405180910390f35b6101ba60048036038101906101b591906119fd565b6105ba565b6040516101c79190611da1565b60405180910390f35b6101d86105d8565b6040516101e59190611dbc565b60405180910390f35b6101f66105fc565b6040516102039190611f79565b60405180910390f35b610226600480360381019061022191906119aa565b610606565b6040516102339190611da1565b60405180910390f35b61025660048036038101906102519190611a3d565b6106fe565b6040516102639190611dbc565b60405180910390f35b61027461071e565b6040516102819190611dbc565b60405180910390f35b6102a4600480360381019061029f9190611a6a565b610742565b005b6102ae61076b565b6040516102bb9190611f94565b60405180910390f35b6102de60048036038101906102d99190611a6a565b610774565b005b6102fa60048036038101906102f591906119fd565b6107f7565b6040516103079190611da1565b60405180910390f35b61032a600480360381019061032591906119fd565b6108a3565b005b6103466004803603810190610341919061193d565b6108e4565b6040516103539190611f79565b60405180910390f35b61037660048036038101906103719190611a6a565b61092c565b6040516103839190611da1565b60405180910390f35b610394610997565b6040516103a19190611dd7565b60405180910390f35b6103c460048036038101906103bf91906119fd565b610a29565b005b6103ce610a6a565b6040516103db9190611dbc565b60405180910390f35b6103fe60048036038101906103f991906119fd565b610a71565b60405161040b9190611da1565b60405180910390f35b61042e600480360381019061042991906119fd565b610b5c565b60405161043b9190611da1565b60405180910390f35b61045e60048036038101906104599190611a6a565b610b7a565b005b61047a6004803603810190610475919061196a565b610ba3565b6040516104879190611f79565b60405180910390f35b610498610c2a565b6040516104a59190611dbc565b60405180910390f35b60007f7965db0b000000000000000000000000000000000000000000000000000000007bffffffffffffffffffffffffffffffffffffffffffffffffffffffff1916827bffffffffffffffffffffffffffffffffffffffffffffffffffffffff19161480610521575061052082610c4e565b5b9050919050565b606060038054610537906121a2565b80601f0160208091040260200160405190810160405280929190818152602001828054610563906121a2565b80156105b05780601f10610585576101008083540402835291602001916105b0565b820191906000526020600020905b81548152906001019060200180831161059357829003601f168201915b5050505050905090565b60006105ce6105c7610cb8565b8484610cc0565b6001905092915050565b7f9667e80708b6eeeb0053fa0cca44e028ff548e2a9f029edfeac87c118b08b7c881565b6000600254905090565b6000610613848484610e8b565b6000600160008673ffffffffffffffffffffffffffffffffffffffff1673ffffffffffffffffffffffffffffffffffffffff168152602001908152602001600020600061065e610cb8565b73ffffffffffffffffffffffffffffffffffffffff1673ffffffffffffffffffffffffffffffffffffffff168152602001908152602001600020549050828110156106de576040517f08c379a00000000000000000000000000000000000000000000000000000000081526004016106d590611e99565b60405180910390fd5b6106f2856106ea610cb8565b858403610cc0565b60019150509392505050565b600060056000838152602001908152602001600020600101549050919050565b7fdf8b4c520ffe197c5343c6f5aec59570151ef9a492f2c624fd45ddde6135ec4281565b61074b826106fe565b61075c81610757610cb8565b61110c565b61076683836111a9565b505050565b60006012905090565b61077c610cb8565b73ffffffffffffffffffffffffffffffffffffffff168173ffffffffffffffffffffffffffffffffffffffff16146107e9576040517f08c379a00000000000000000000000000000000000000000000000000000000081526004016107e090611f39565b60405180910390fd5b6107f3828261128a565b5050565b6000610899610804610cb8565b848460016000610812610cb8565b73ffffffffffffffffffffffffffffffffffffffff1673ffffffffffffffffffffffffffffffffffffffff16815260200190815260200160002060008873ffffffffffffffffffffffffffffffffffffffff1673ffffffffffffffffffffffffffffffffffffffff168152602001908152602001600020546108949190611fd6565b610cc0565b6001905092915050565b7ff0887ba65ee2024ea881d91b74c2450ef19e1557f03bed3ea9f16b037cbe2dc96108d5816108d0610cb8565b61110c565b6108df838361136c565b505050565b60008060008373ffffffffffffffffffffffffffffffffffffffff1673ffffffffffffffffffffffffffffffffffffffff168152602001908152602001600020549050919050565b60006005600084815260200190815260200160002060000160008373ffffffffffffffffffffffffffffffffffffffff1673ffffffffffffffffffffffffffffffffffffffff16815260200190815260200160002060009054906101000a900460ff16905092915050565b6060600480546109a6906121a2565b80601f01602080910402602001604051908101604052809291908181526020018280546109d2906121a2565b8015610a1f5780601f106109f457610100808354040283529160200191610a1f565b820191906000526020600020905b815481529060010190602001808311610a0257829003601f168201915b5050505050905090565b7f9667e80708b6eeeb0053fa0cca44e028ff548e2a9f029edfeac87c118b08b7c8610a5b81610a56610cb8565b61110c565b610a6583836114cc565b505050565b6000801b81565b60008060016000610a80610cb8565b73ffffffffffffffffffffffffffffffffffffffff1673ffffffffffffffffffffffffffffffffffffffff16815260200190815260200160002060008573ffffffffffffffffffffffffffffffffffffffff1673ffffffffffffffffffffffffffffffffffffffff16815260200190815260200160002054905082811015610b3d576040517f08c379a0000000000000000000000000000000000000000000000000000000008152600401610b3490611f19565b60405180910390fd5b610b51610b48610cb8565b85858403610cc0565b600191505092915050565b6000610b70610b69610cb8565b8484610e8b565b6001905092915050565b610b83826106fe565b610b9481610b8f610cb8565b61110c565b610b9e838361128a565b505050565b6000600160008473ffffffffffffffffffffffffffffffffffffffff1673ffffffffffffffffffffffffffffffffffffffff16815260200190815260200160002060008373ffffffffffffffffffffffffffffffffffffffff1673ffffffffffffffffffffffffffffffffffffffff16815260200190815260200160002054905092915050565b7ff0887ba65ee2024ea881d91b74c2450ef19e1557f03bed3ea9f16b037cbe2dc981565b60007f01ffc9a7000000000000000000000000000000000000000000000000000000007bffffffffffffffffffffffffffffffffffffffffffffffffffffffff1916827bffffffffffffffffffffffffffffffffffffffffffffffffffffffff1916149050919050565b600033905090565b600073ffffffffffffffffffffffffffffffffffffffff168373ffffffffffffffffffffffffffffffffffffffff161415610d30576040517f08c379a0000000000000000000000000000000000000000000000000000000008152600401610d2790611ef9565b60405180910390fd5b600073ffffffffffffffffffffffffffffffffffffffff168273ffffffffffffffffffffffffffffffffffffffff161415610da0576040517f08c379a0000000000000000000000000000000000000000000000000000000008152600401610d9790611e59565b60405180910390fd5b80600160008573ffffffffffffffffffffffffffffffffffffffff1673ffffffffffffffffffffffffffffffffffffffff16815260200190815260200160002060008473ffffffffffffffffffffffffffffffffffffffff1673ffffffffffffffffffffffffffffffffffffffff168152602001908152602001600020819055508173ffffffffffffffffffffffffffffffffffffffff168373ffffffffffffffffffffffffffffffffffffffff167f8c5be1e5ebec7d5bd14f71427d1e84f3dd0314c0f7b2291e5b200ac8c7c3b92583604051610e7e9190611f79565b60405180910390a3505050565b600073ffffffffffffffffffffffffffffffffffffffff168373ffffffffffffffffffffffffffffffffffffffff161415610efb576040517f08c379a0000000000000000000000000000000000000000000000000000000008152600401610ef290611ed9565b60405180910390fd5b600073ffffffffffffffffffffffffffffffffffffffff168273ffffffffffffffffffffffffffffffffffffffff161415610f6b576040517f08c379a0000000000000000000000000000000000000000000000000000000008152600401610f6290611e19565b60405180910390fd5b610f768383836116a3565b60008060008573ffffffffffffffffffffffffffffffffffffffff1673ffffffffffffffffffffffffffffffffffffffff16815260200190815260200160002054905081811015610ffc576040517f08c379a0000000000000000000000000000000000000000000000000000000008152600401610ff390611e79565b60405180910390fd5b8181036000808673ffffffffffffffffffffffffffffffffffffffff1673ffffffffffffffffffffffffffffffffffffffff16815260200190815260200160002081905550816000808573ffffffffffffffffffffffffffffffffffffffff1673ffffffffffffffffffffffffffffffffffffffff168152602001908152602001600020600082825461108f9190611fd6565b925050819055508273ffffffffffffffffffffffffffffffffffffffff168473ffffffffffffffffffffffffffffffffffffffff167fddf252ad1be2c89b69c2b068fc378daa952ba7f163c4a11628f55a4df523b3ef846040516110f39190611f79565b60405180910390a36111068484846116a8565b50505050565b611116828261092c565b6111a55761113b8173ffffffffffffffffffffffffffffffffffffffff1660146116ad565b6111498360001c60206116ad565b60405160200161115a929190611d67565b6040516020818303038152906040526040517f08c379a000000000000000000000000000000000000000000000000000000000815260040161119c9190611dd7565b60405180910390fd5b5050565b6111b3828261092c565b6112865760016005600084815260200190815260200160002060000160008373ffffffffffffffffffffffffffffffffffffffff1673ffffffffffffffffffffffffffffffffffffffff16815260200190815260200160002060006101000a81548160ff02191690831515021790555061122b610cb8565b73ffffffffffffffffffffffffffffffffffffffff168173ffffffffffffffffffffffffffffffffffffffff16837f2f8788117e7eff1d82e926ec794901d17c78024a50270940304540a733656f0d60405160405180910390a45b5050565b611294828261092c565b156113685760006005600084815260200190815260200160002060000160008373ffffffffffffffffffffffffffffffffffffffff1673ffffffffffffffffffffffffffffffffffffffff16815260200190815260200160002060006101000a81548160ff02191690831515021790555061130d610cb8565b73ffffffffffffffffffffffffffffffffffffffff168173ffffffffffffffffffffffffffffffffffffffff16837ff6391f5c32d9c69d2a47ea670b442974b53935d1edc7fd64eb21e047a839171b60405160405180910390a45b5050565b600073ffffffffffffffffffffffffffffffffffffffff168273ffffffffffffffffffffffffffffffffffffffff1614156113dc576040517f08c379a00000000000000000000000000000000000000000000000000000000081526004016113d390611f59565b60405180910390fd5b6113e8600083836116a3565b80600260008282546113fa9190611fd6565b92505081905550806000808473ffffffffffffffffffffffffffffffffffffffff1673ffffffffffffffffffffffffffffffffffffffff168152602001908152602001600020600082825461144f9190611fd6565b925050819055508173ffffffffffffffffffffffffffffffffffffffff16600073ffffffffffffffffffffffffffffffffffffffff167fddf252ad1be2c89b69c2b068fc378daa952ba7f163c4a11628f55a4df523b3ef836040516114b49190611f79565b60405180910390a36114c8600083836116a8565b5050565b600073ffffffffffffffffffffffffffffffffffffffff168273ffffffffffffffffffffffffffffffffffffffff16141561153c576040517f08c379a000000000000000000000000000000000000000000000000000000000815260040161153390611eb9565b60405180910390fd5b611548826000836116a3565b60008060008473ffffffffffffffffffffffffffffffffffffffff1673ffffffffffffffffffffffffffffffffffffffff168152602001908152602001600020549050818110156115ce576040517f08c379a00000000000000000000000000000000000000000000000000000000081526004016115c590611e39565b60405180910390fd5b8181036000808573ffffffffffffffffffffffffffffffffffffffff1673ffffffffffffffffffffffffffffffffffffffff1681526020019081526020016000208190555081600260008282546116259190612086565b92505081905550600073ffffffffffffffffffffffffffffffffffffffff168373ffffffffffffffffffffffffffffffffffffffff167fddf252ad1be2c89b69c2b068fc378daa952ba7f163c4a11628f55a4df523b3ef8460405161168a9190611f79565b60405180910390a361169e836000846116a8565b505050565b505050565b505050565b6060600060028360026116c0919061202c565b6116ca9190611fd6565b67ffffffffffffffff8111156116e3576116e2612261565b5b6040519080825280601f01601f1916602001820160405280156117155781602001600182028036833780820191505090505b5090507f30000000000000000000000000000000000000000000000000000000000000008160008151811061174d5761174c612232565b5b60200101907effffffffffffffffffffffffffffffffffffffffffffffffffffffffffffff1916908160001a9053507f7800000000000000000000000000000000000000000000000000000000000000816001815181106117b1576117b0612232565b5b60200101907effffffffffffffffffffffffffffffffffffffffffffffffffffffffffffff1916908160001a905350600060018460026117f1919061202c565b6117fb9190611fd6565b90505b600181111561189b577f3031323334353637383961626364656600000000000000000000000000000000600f86166010811061183d5761183c612232565b5b1a60f81b82828151811061185457611853612232565b5b60200101907effffffffffffffffffffffffffffffffffffffffffffffffffffffffffffff1916908160001a905350600485901c94508061189490612178565b90506117fe565b50600084146118df576040517f08c379a00000000000000000000000000000000000000000000000000000000081526004016118d690611df9565b60405180910390fd5b8091505092915050565b6000813590506118f881612660565b92915050565b60008135905061190d81612677565b92915050565b6000813590506119228161268e565b92915050565b600081359050611937816126a5565b92915050565b60006020828403121561195357611952612290565b5b6000611961848285016118e9565b91505092915050565b6000806040838503121561198157611980612290565b5b600061198f858286016118e9565b92505060206119a0858286016118e9565b9150509250929050565b6000806000606084860312156119c3576119c2612290565b5b60006119d1868287016118e9565b93505060206119e2868287016118e9565b92505060406119f386828701611928565b9150509250925092565b60008060408385031215611a1457611a13612290565b5b6000611a22858286016118e9565b9250506020611a3385828601611928565b9150509250929050565b600060208284031215611a5357611a52612290565b5b6000611a61848285016118fe565b91505092915050565b60008060408385031215611a8157611a80612290565b5b6000611a8f858286016118fe565b9250506020611aa0858286016118e9565b9150509250929050565b600060208284031215611ac057611abf612290565b5b6000611ace84828501611913565b91505092915050565b611ae0816120cc565b82525050565b611aef816120d8565b82525050565b6000611b0082611faf565b611b0a8185611fba565b9350611b1a818560208601612145565b611b2381612295565b840191505092915050565b6000611b3982611faf565b611b438185611fcb565b9350611b53818560208601612145565b80840191505092915050565b6000611b6c602083611fba565b9150611b77826122a6565b602082019050919050565b6000611b8f602383611fba565b9150611b9a826122cf565b604082019050919050565b6000611bb2602283611fba565b9150611bbd8261231e565b604082019050919050565b6000611bd5602283611fba565b9150611be08261236d565b604082019050919050565b6000611bf8602683611fba565b9150611c03826123bc565b604082019050919050565b6000611c1b602883611fba565b9150611c268261240b565b604082019050919050565b6000611c3e602183611fba565b9150611c498261245a565b604082019050919050565b6000611c61602583611fba565b9150611c6c826124a9565b604082019050919050565b6000611c84602483611fba565b9150611c8f826124f8565b604082019050919050565b6000611ca7601783611fcb565b9150611cb282612547565b601782019050919050565b6000611cca602583611fba565b9150611cd582612570565b604082019050919050565b6000611ced601183611fcb565b9150611cf8826125bf565b601182019050919050565b6000611d10602f83611fba565b9150611d1b826125e8565b604082019050919050565b6000611d33601f83611fba565b9150611d3e82612637565b602082019050919050565b611d528161212e565b82525050565b611d6181612138565b82525050565b6000611d7282611c9a565b9150611d7e8285611b2e565b9150611d8982611ce0565b9150611d958284611b2e565b91508190509392505050565b6000602082019050611db66000830184611ad7565b92915050565b6000602082019050611dd16000830184611ae6565b92915050565b60006020820190508181036000830152611df18184611af5565b905092915050565b60006020820190508181036000830152611e1281611b5f565b9050919050565b60006020820190508181036000830152611e3281611b82565b9050919050565b60006020820190508181036000830152611e5281611ba5565b9050919050565b60006020820190508181036000830152611e7281611bc8565b9050919050565b60006020820190508181036000830152611e9281611beb565b9050919050565b60006020820190508181036000830152611eb281611c0e565b9050919050565b60006020820190508181036000830152611ed281611c31565b9050919050565b60006020820190508181036000830152611ef281611c54565b9050919050565b60006020820190508181036000830152611f1281611c77565b9050919050565b60006020820190508181036000830152611f3281611cbd565b9050919050565b60006020820190508181036000830152611f5281611d03565b9050919050565b60006020820190508181036000830152611f7281611d26565b9050919050565b6000602082019050611f8e6000830184611d49565b92915050565b6000602082019050611fa96000830184611d58565b92915050565b600081519050919050565b600082825260208201905092915050565b600081905092915050565b6000611fe18261212e565b9150611fec8361212e565b9250827fffffffffffffffffffffffffffffffffffffffffffffffffffffffffffffffff03821115612021576120206121d4565b5b828201905092915050565b60006120378261212e565b91506120428361212e565b9250817fffffffffffffffffffffffffffffffffffffffffffffffffffffffffffffffff048311821515161561207b5761207a6121d4565b5b828202905092915050565b60006120918261212e565b915061209c8361212e565b9250828210156120af576120ae6121d4565b5b828203905092915050565b60006120c58261210e565b9050919050565b60008115159050919050565b6000819050919050565b60007fffffffff0000000000000000000000000000000000000000000000000000000082169050919050565b600073ffffffffffffffffffffffffffffffffffffffff82169050919050565b6000819050919050565b600060ff82169050919050565b60005b83811015612163578082015181840152602081019050612148565b83811115612172576000848401525b50505050565b60006121838261212e565b91506000821415612197576121966121d4565b5b600182039050919050565b600060028204905060018216806121ba57607f821691505b602082108114156121ce576121cd612203565b5b50919050565b7f4e487b7100000000000000000000000000000000000000000000000000000000600052601160045260246000fd5b7f4e487b7100000000000000000000000000000000000000000000000000000000600052602260045260246000fd5b7f4e487b7100000000000000000000000000000000000000000000000000000000600052603260045260246000fd5b7f4e487b7100000000000000000000000000000000000000000000000000000000600052604160045260246000fd5b600080fd5b6000601f19601f8301169050919050565b7f537472696e67733a20686578206c656e67746820696e73756666696369656e74600082015250565b7f45524332303a207472616e7366657220746f20746865207a65726f206164647260008201527f6573730000000000000000000000000000000000000000000000000000000000602082015250565b7f45524332303a206275726e20616d6f756e7420657863656564732062616c616e60008201527f6365000000000000000000000000000000000000000000000000000000000000602082015250565b7f45524332303a20617070726f766520746f20746865207a65726f20616464726560008201527f7373000000000000000000000000000000000000000000000000000000000000602082015250565b7f45524332303a207472616e7366657220616d6f756e742065786365656473206260008201527f616c616e63650000000000000000000000000000000000000000000000000000602082015250565b7f45524332303a207472616e7366657220616d6f756e742065786365656473206160008201527f6c6c6f77616e6365000000000000000000000000000000000000000000000000602082015250565b7f45524332303a206275726e2066726f6d20746865207a65726f2061646472657360008201527f7300000000000000000000000000000000000000000000000000000000000000602082015250565b7f45524332303a207472616e736665722066726f6d20746865207a65726f20616460008201527f6472657373000000000000000000000000000000000000000000000000000000602082015250565b7f45524332303a20617070726f76652066726f6d20746865207a65726f2061646460008201527f7265737300000000000000000000000000000000000000000000000000000000602082015250565b7f416363657373436f6e74726f6c3a206163636f756e7420000000000000000000600082015250565b7f45524332303a2064656372656173656420616c6c6f77616e63652062656c6f7760008201527f207a65726f000000000000000000000000000000000000000000000000000000602082015250565b7f206973206d697373696e6720726f6c6520000000000000000000000000000000600082015250565b7f416363657373436f6e74726f6c3a2063616e206f6e6c792072656e6f756e636560008201527f20726f6c657320666f722073656c660000000000000000000000000000000000602082015250565b7f45524332303a206d696e7420746f20746865207a65726f206164647265737300600082015250565b612669816120ba565b811461267457600080fd5b50565b612680816120d8565b811461268b57600080fd5b50565b612697816120e2565b81146126a257600080fd5b50565b6126ae8161212e565b81146126b957600080fd5b5056fea2646970667358221220446c91c4708073f24296cda3fef43e62b43306bd134840191e3f9583dffa291364736f6c63430008060033",
  "linkReferences": {},
  "deployedLinkReferences": {}
}