{
  "_format": "hh-sol-artifact-1",
  "contractName": "Bridge",
  "sourceName": "contracts/Bridge.sol",
  "abi": [
    {
      "inputs": [
        {
          "internalType": "address",
          "name": "_addressOfToken",
          "type": "address"
        },
        {
          "internalType": "uint256",
          "name": "_chainId",
          "type": "uint256"
        }
      ],
      "stateMutability": "nonpayable",
      "type": "constructor"
    },
    {
      "anonymous": false,
      "inputs": [
        {
          "indexed": false,
          "internalType": "uint256",
          "name": "chainFrom",
          "type": "uint256"
        },
        {
          "indexed": false,
          "internalType": "uint256",
          "name": "chainTo",
          "type": "uint256"
        },
        {
          "indexed": false,
          "internalType": "address",
          "name": "sender",
          "type": "address"
        },
        {
          "indexed": false,
          "internalType": "address",
          "name": "recipient",
          "type": "address"
        },
        {
          "indexed": false,
          "internalType": "uint256",
          "name": "amount",
          "type": "uint256"
        },
        {
          "indexed": false,
          "internalType": "uint256",
          "name": "nonce",
          "type": "uint256"
        },
        {
          "indexed": false,
          "internalType": "bytes",
          "name": "signature",
          "type": "bytes"
        }
      ],
      "name": "InitSwap",
      "type": "event"
    },
    {
      "anonymous": false,
      "inputs": [
        {
          "indexed": false,
          "internalType": "uint256",
          "name": "chainFrom",
          "type": "uint256"
        },
        {
          "indexed": false,
          "internalType": "uint256",
          "name": "chainTo",
          "type": "uint256"
        },
        {
          "indexed": false,
          "internalType": "address",
          "name": "sender",
          "type": "address"
        },
        {
          "indexed": false,
          "internalType": "address",
          "name": "recipient",
          "type": "address"
        },
        {
          "indexed": false,
          "internalType": "uint256",
          "name": "amount",
          "type": "uint256"
        },
        {
          "indexed": false,
          "internalType": "uint256",
          "name": "nonce",
          "type": "uint256"
        }
      ],
      "name": "Redeem",
      "type": "event"
    },
    {
      "anonymous": false,
      "inputs": [
        {
          "indexed": true,
          "internalType": "bytes32",
          "name": "role",
          "type": "bytes32"
        },
        {
          "indexed": true,
          "internalType": "bytes32",
          "name": "previousAdminRole",
          "type": "bytes32"
        },
        {
          "indexed": true,
          "internalType": "bytes32",
          "name": "newAdminRole",
          "type": "bytes32"
        }
      ],
      "name": "RoleAdminChanged",
      "type": "event"
    },
    {
      "anonymous": false,
      "inputs": [
        {
          "indexed": true,
          "internalType": "bytes32",
          "name": "role",
          "type": "bytes32"
        },
        {
          "indexed": true,
          "internalType": "address",
          "name": "account",
          "type": "address"
        },
        {
          "indexed": true,
          "internalType": "address",
          "name": "sender",
          "type": "address"
        }
      ],
      "name": "RoleGranted",
      "type": "event"
    },
    {
      "anonymous": false,
      "inputs": [
        {
          "indexed": true,
          "internalType": "bytes32",
          "name": "role",
          "type": "bytes32"
        },
        {
          "indexed": true,
          "internalType": "address",
          "name": "account",
          "type": "address"
        },
        {
          "indexed": true,
          "internalType": "address",
          "name": "sender",
          "type": "address"
        }
      ],
      "name": "RoleRevoked",
      "type": "event"
    },
    {
      "inputs": [],
      "name": "ADMIN",
      "outputs": [
        {
          "internalType": "bytes32",
          "name": "",
          "type": "bytes32"
        }
      ],
      "stateMutability": "view",
      "type": "function"
    },
    {
      "inputs": [],
      "name": "DEFAULT_ADMIN_ROLE",
      "outputs": [
        {
          "internalType": "bytes32",
          "name": "",
          "type": "bytes32"
        }
      ],
      "stateMutability": "view",
      "type": "function"
    },
    {
      "inputs": [],
      "name": "VALIDATOR",
      "outputs": [
        {
          "internalType": "bytes32",
          "name": "",
          "type": "bytes32"
        }
      ],
      "stateMutability": "view",
      "type": "function"
    },
    {
      "inputs": [],
      "name": "addressOfToken",
      "outputs": [
        {
          "internalType": "address",
          "name": "",
          "type": "address"
        }
      ],
      "stateMutability": "view",
      "type": "function"
    },
    {
      "inputs": [],
      "name": "chainId",
      "outputs": [
        {
          "internalType": "uint256",
          "name": "",
          "type": "uint256"
        }
      ],
      "stateMutability": "view",
      "type": "function"
    },
    {
      "inputs": [
        {
          "internalType": "uint256",
          "name": "",
          "type": "uint256"
        }
      ],
      "name": "chainList",
      "outputs": [
        {
          "internalType": "bool",
          "name": "",
          "type": "bool"
        }
      ],
      "stateMutability": "view",
      "type": "function"
    },
    {
      "inputs": [
        {
          "internalType": "bytes32",
          "name": "role",
          "type": "bytes32"
        }
      ],
      "name": "getRoleAdmin",
      "outputs": [
        {
          "internalType": "bytes32",
          "name": "",
          "type": "bytes32"
        }
      ],
      "stateMutability": "view",
      "type": "function"
    },
    {
      "inputs": [
        {
          "internalType": "bytes32",
          "name": "role",
          "type": "bytes32"
        },
        {
          "internalType": "address",
          "name": "account",
          "type": "address"
        }
      ],
      "name": "grantRole",
      "outputs": [],
      "stateMutability": "nonpayable",
      "type": "function"
    },
    {
      "inputs": [
        {
          "internalType": "bytes32",
          "name": "role",
          "type": "bytes32"
        },
        {
          "internalType": "address",
          "name": "account",
          "type": "address"
        }
      ],
      "name": "hasRole",
      "outputs": [
        {
          "internalType": "bool",
          "name": "",
          "type": "bool"
        }
      ],
      "stateMutability": "view",
      "type": "function"
    },
    {
      "inputs": [
        {
          "internalType": "uint256",
          "name": "_chainFrom",
          "type": "uint256"
        },
        {
          "internalType": "uint256",
          "name": "_chainTo",
          "type": "uint256"
        },
        {
          "internalType": "address",
          "name": "_recipient",
          "type": "address"
        },
        {
          "internalType": "uint256",
          "name": "_amount",
          "type": "uint256"
        },
        {
          "internalType": "uint256",
          "name": "_nonce",
          "type": "uint256"
        },
        {
          "internalType": "bytes",
          "name": "_signature",
          "type": "bytes"
        }
      ],
      "name": "initSwap",
      "outputs": [],
      "stateMutability": "nonpayable",
      "type": "function"
    },
    {
      "inputs": [
        {
          "internalType": "uint256",
          "name": "_chainFrom",
          "type": "uint256"
        },
        {
          "internalType": "uint256",
          "name": "_chainTo",
          "type": "uint256"
        },
        {
          "internalType": "address",
          "name": "_sender",
          "type": "address"
        },
        {
          "internalType": "address",
          "name": "_recipient",
          "type": "address"
        },
        {
          "internalType": "uint256",
          "name": "_amount",
          "type": "uint256"
        },
        {
          "internalType": "uint256",
          "name": "_nonce",
          "type": "uint256"
        },
        {
          "internalType": "bytes",
          "name": "_signature",
          "type": "bytes"
        }
      ],
      "name": "redeem",
      "outputs": [],
      "stateMutability": "nonpayable",
      "type": "function"
    },
    {
      "inputs": [
        {
          "internalType": "bytes32",
          "name": "role",
          "type": "bytes32"
        },
        {
          "internalType": "address",
          "name": "account",
          "type": "address"
        }
      ],
      "name": "renounceRole",
      "outputs": [],
      "stateMutability": "nonpayable",
      "type": "function"
    },
    {
      "inputs": [
        {
          "internalType": "bytes32",
          "name": "role",
          "type": "bytes32"
        },
        {
          "internalType": "address",
          "name": "account",
          "type": "address"
        }
      ],
      "name": "revokeRole",
      "outputs": [],
      "stateMutability": "nonpayable",
      "type": "function"
    },
    {
      "inputs": [
        {
          "internalType": "uint256",
          "name": "_chainId",
          "type": "uint256"
        },
        {
          "internalType": "bool",
          "name": "_boolean",
          "type": "bool"
        }
      ],
      "name": "setChainId",
      "outputs": [],
      "stateMutability": "nonpayable",
      "type": "function"
    },
    {
      "inputs": [
        {
          "internalType": "bytes4",
          "name": "interfaceId",
          "type": "bytes4"
        }
      ],
      "name": "supportsInterface",
      "outputs": [
        {
          "internalType": "bool",
          "name": "",
          "type": "bool"
        }
      ],
      "stateMutability": "view",
      "type": "function"
    },
    {
      "inputs": [
        {
          "internalType": "bytes32",
          "name": "",
          "type": "bytes32"
        }
      ],
      "name": "swaps",
      "outputs": [
        {
          "internalType": "enum Bridge.Status",
          "name": "",
          "type": "uint8"
        }
      ],
      "stateMutability": "view",
      "type": "function"
    },
    {
      "inputs": [
        {
          "internalType": "uint256",
          "name": "_chainId",
          "type": "uint256"
        }
      ],
      "name": "updateChainId",
      "outputs": [],
      "stateMutability": "nonpayable",
      "type": "function"
    },
    {
      "inputs": [
        {
          "internalType": "address",
          "name": "_addressOfToken",
          "type": "address"
        }
      ],
      "name": "updateTokenAddress",
      "outputs": [],
      "stateMutability": "nonpayable",
      "type": "function"
    }
  ],
  "bytecode": "0x60806040523480156200001157600080fd5b5060405162002b3538038062002b3583398181016040528101906200003791906200033b565b6001808190555081600260006101000a81548173ffffffffffffffffffffffffffffffffffffffff021916908373ffffffffffffffffffffffffffffffffffffffff16021790555080600381905550620000b87fdf8b4c520ffe197c5343c6f5aec59570151ef9a492f2c624fd45ddde6135ec42336200011260201b60201c565b6200010a7fa95257aebefccffaada4758f028bce81ea992693be70592f620c4c9a0d9e715a7fdf8b4c520ffe197c5343c6f5aec59570151ef9a492f2c624fd45ddde6135ec426200012860201b60201c565b5050620003f9565b6200012482826200018b60201b60201c565b5050565b60006200013b836200027c60201b60201c565b905081600080858152602001908152602001600020600101819055508181847fbd79b86ffe0ab8e8776151514217cd7cacd52c909f66475c3af44e129f0b00ff60405160405180910390a4505050565b6200019d82826200029b60201b60201c565b6200027857600160008084815260200190815260200160002060000160008373ffffffffffffffffffffffffffffffffffffffff1673ffffffffffffffffffffffffffffffffffffffff16815260200190815260200160002060006101000a81548160ff0219169083151502179055506200021d6200030560201b60201c565b73ffffffffffffffffffffffffffffffffffffffff168173ffffffffffffffffffffffffffffffffffffffff16837f2f8788117e7eff1d82e926ec794901d17c78024a50270940304540a733656f0d60405160405180910390a45b5050565b6000806000838152602001908152602001600020600101549050919050565b600080600084815260200190815260200160002060000160008373ffffffffffffffffffffffffffffffffffffffff1673ffffffffffffffffffffffffffffffffffffffff16815260200190815260200160002060009054906101000a900460ff16905092915050565b600033905090565b6000815190506200031e81620003c5565b92915050565b6000815190506200033581620003df565b92915050565b60008060408385031215620003555762000354620003c0565b5b600062000365858286016200030d565b9250506020620003788582860162000324565b9150509250929050565b60006200038f8262000396565b9050919050565b600073ffffffffffffffffffffffffffffffffffffffff82169050919050565b6000819050919050565b600080fd5b620003d08162000382565b8114620003dc57600080fd5b50565b620003ea81620003b6565b8114620003f657600080fd5b50565b61272c80620004096000396000f3fe608060405234801561001057600080fd5b50600436106101165760003560e01c806370d48798116100a2578063ab32fd0b11610071578063ab32fd0b146102e1578063b5eb4302146102fd578063d547741f14610319578063eb84e7f214610335578063ed9c05411461036557610116565b806370d487981461024557806391d14854146102755780639a8a0592146102a5578063a217fddf146102c357610116565b80632f2ff15d116100e95780632f2ff15d146101b557806336568abe146101d1578063393df8cb146101ed5780634a0f97e81461020b5780636691461a1461022957610116565b8063011543141461011b57806301ffc9a714610137578063248a9ca3146101675780632a0acc6a14610197575b600080fd5b6101356004803603810190610130919061182b565b610381565b005b610151600480360381019061014c9190611791565b6106dd565b60405161015e9190611d34565b60405180910390f35b610181600480360381019061017c9190611724565b610757565b60405161018e9190611d4f565b60405180910390f35b61019f610776565b6040516101ac9190611d4f565b60405180910390f35b6101cf60048036038101906101ca9190611751565b61079a565b005b6101eb60048036038101906101e69190611751565b6107c3565b005b6101f5610846565b6040516102029190611d4f565b60405180910390f35b61021361086a565b6040516102209190611cf0565b60405180910390f35b610243600480360381019061023e91906116f7565b610890565b005b61025f600480360381019061025a91906117be565b610907565b60405161026c9190611d34565b60405180910390f35b61028f600480360381019061028a9190611751565b610927565b60405161029c9190611d34565b60405180910390f35b6102ad610991565b6040516102ba9190611f4c565b60405180910390f35b6102cb610997565b6040516102d89190611d4f565b60405180910390f35b6102fb60048036038101906102f691906117be565b61099e565b005b610317600480360381019061031291906118e9565b6109db565b005b610333600480360381019061032e9190611751565b610c5d565b005b61034f600480360381019061034a9190611724565b610c86565b60405161035c9190611daf565b60405180910390f35b61037f600480360381019061037a91906117eb565b610ca6565b005b600260015414156103c7576040517f08c379a00000000000000000000000000000000000000000000000000000000081526004016103be90611f0c565b60405180910390fd5b6002600181905550858060035414610414576040517f08c379a000000000000000000000000000000000000000000000000000000000815260040161040b90611eec565b60405180910390fd5b87600115156005600083815260200190815260200160002060009054906101000a900460ff1615151461047c576040517f08c379a000000000000000000000000000000000000000000000000000000000815260040161047390611e6c565b60405180910390fd5b600089898989898960405160200161049996959493929190611f67565b604051602081830303815290604052805190602001209050600060028111156104c5576104c461230d565b5b6004600083815260200190815260200160002060009054906101000a900460ff1660028111156104f8576104f761230d565b5b14610538576040517f08c379a000000000000000000000000000000000000000000000000000000000815260040161052f90611e4c565b60405180910390fd5b600061054382610d08565b905060006105518287610d38565b905061057d7fa95257aebefccffaada4758f028bce81ea992693be70592f620c4c9a0d9e715a82610927565b6105bc576040517f08c379a00000000000000000000000000000000000000000000000000000000081526004016105b390611eac565b60405180910390fd5b600260009054906101000a900473ffffffffffffffffffffffffffffffffffffffff1673ffffffffffffffffffffffffffffffffffffffff166340c10f198a8a6040518363ffffffff1660e01b8152600401610619929190611d0b565b600060405180830381600087803b15801561063357600080fd5b505af1158015610647573d6000803e3d6000fd5b5050505060026004600085815260200190815260200160002060006101000a81548160ff021916908360028111156106825761068161230d565b5b02179055507f9a84f53e470f503fb310f17909ce75ce506eefe2763a4520013e967a1add73948c8c8c8c8c8c6040516106c096959493929190611f67565b60405180910390a150505050506001808190555050505050505050565b60007f7965db0b000000000000000000000000000000000000000000000000000000007bffffffffffffffffffffffffffffffffffffffffffffffffffffffff1916827bffffffffffffffffffffffffffffffffffffffffffffffffffffffff19161480610750575061074f82610d5f565b5b9050919050565b6000806000838152602001908152602001600020600101549050919050565b7fdf8b4c520ffe197c5343c6f5aec59570151ef9a492f2c624fd45ddde6135ec4281565b6107a382610757565b6107b4816107af610dc9565b610dd1565b6107be8383610e6e565b505050565b6107cb610dc9565b73ffffffffffffffffffffffffffffffffffffffff168173ffffffffffffffffffffffffffffffffffffffff1614610838576040517f08c379a000000000000000000000000000000000000000000000000000000000815260040161082f90611f2c565b60405180910390fd5b6108428282610f4e565b5050565b7fa95257aebefccffaada4758f028bce81ea992693be70592f620c4c9a0d9e715a81565b600260009054906101000a900473ffffffffffffffffffffffffffffffffffffffff1681565b7fdf8b4c520ffe197c5343c6f5aec59570151ef9a492f2c624fd45ddde6135ec426108c2816108bd610dc9565b610dd1565b81600260006101000a81548173ffffffffffffffffffffffffffffffffffffffff021916908373ffffffffffffffffffffffffffffffffffffffff1602179055505050565b60056020528060005260406000206000915054906101000a900460ff1681565b600080600084815260200190815260200160002060000160008373ffffffffffffffffffffffffffffffffffffffff1673ffffffffffffffffffffffffffffffffffffffff16815260200190815260200160002060009054906101000a900460ff16905092915050565b60035481565b6000801b81565b7fdf8b4c520ffe197c5343c6f5aec59570151ef9a492f2c624fd45ddde6135ec426109d0816109cb610dc9565b610dd1565b816003819055505050565b858060035414610a20576040517f08c379a0000000000000000000000000000000000000000000000000000000008152600401610a1790611eec565b60405180910390fd5b85600115156005600083815260200190815260200160002060009054906101000a900460ff16151514610a88576040517f08c379a0000000000000000000000000000000000000000000000000000000008152600401610a7f90611e6c565b60405180910390fd5b6000888833898989604051602001610aa596959493929190611f67565b60405160208183030381529060405280519060200120905060006002811115610ad157610ad061230d565b5b6004600083815260200190815260200160002060009054906101000a900460ff166002811115610b0457610b0361230d565b5b14610b44576040517f08c379a0000000000000000000000000000000000000000000000000000000008152600401610b3b90611e4c565b60405180910390fd5b60016004600083815260200190815260200160002060006101000a81548160ff02191690836002811115610b7b57610b7a61230d565b5b0217905550600260009054906101000a900473ffffffffffffffffffffffffffffffffffffffff1673ffffffffffffffffffffffffffffffffffffffff16639dc29fac33886040518363ffffffff1660e01b8152600401610bdd929190611d0b565b600060405180830381600087803b158015610bf757600080fd5b505af1158015610c0b573d6000803e3d6000fd5b505050507f86301b7c80a3b59a01b1484a1023ab47fe920ababec09c203cf1aef74efecc738989338a8a8a8a604051610c4a9796959493929190611fc8565b60405180910390a1505050505050505050565b610c6682610757565b610c7781610c72610dc9565b610dd1565b610c818383610f4e565b505050565b60046020528060005260406000206000915054906101000a900460ff1681565b7fdf8b4c520ffe197c5343c6f5aec59570151ef9a492f2c624fd45ddde6135ec42610cd881610cd3610dc9565b610dd1565b816005600085815260200190815260200160002060006101000a81548160ff021916908315150217905550505050565b600081604051602001610d1b9190611c90565b604051602081830303815290604052805190602001209050919050565b6000806000610d47858561102f565b91509150610d54816110b2565b819250505092915050565b60007f01ffc9a7000000000000000000000000000000000000000000000000000000007bffffffffffffffffffffffffffffffffffffffffffffffffffffffff1916827bffffffffffffffffffffffffffffffffffffffffffffffffffffffff1916149050919050565b600033905090565b610ddb8282610927565b610e6a57610e008173ffffffffffffffffffffffffffffffffffffffff166014611287565b610e0e8360001c6020611287565b604051602001610e1f929190611cb6565b6040516020818303038152906040526040517f08c379a0000000000000000000000000000000000000000000000000000000008152600401610e619190611dca565b60405180910390fd5b5050565b610e788282610927565b610f4a57600160008084815260200190815260200160002060000160008373ffffffffffffffffffffffffffffffffffffffff1673ffffffffffffffffffffffffffffffffffffffff16815260200190815260200160002060006101000a81548160ff021916908315150217905550610eef610dc9565b73ffffffffffffffffffffffffffffffffffffffff168173ffffffffffffffffffffffffffffffffffffffff16837f2f8788117e7eff1d82e926ec794901d17c78024a50270940304540a733656f0d60405160405180910390a45b5050565b610f588282610927565b1561102b57600080600084815260200190815260200160002060000160008373ffffffffffffffffffffffffffffffffffffffff1673ffffffffffffffffffffffffffffffffffffffff16815260200190815260200160002060006101000a81548160ff021916908315150217905550610fd0610dc9565b73ffffffffffffffffffffffffffffffffffffffff168173ffffffffffffffffffffffffffffffffffffffff16837ff6391f5c32d9c69d2a47ea670b442974b53935d1edc7fd64eb21e047a839171b60405160405180910390a45b5050565b6000806041835114156110715760008060006020860151925060408601519150606086015160001a9050611065878285856114c3565b945094505050506110ab565b6040835114156110a25760008060208501519150604085015190506110978683836115d0565b9350935050506110ab565b60006002915091505b9250929050565b600060048111156110c6576110c561230d565b5b8160048111156110d9576110d861230d565b5b14156110e457611284565b600160048111156110f8576110f761230d565b5b81600481111561110b5761110a61230d565b5b141561114c576040517f08c379a000000000000000000000000000000000000000000000000000000000815260040161114390611dec565b60405180910390fd5b600260048111156111605761115f61230d565b5b8160048111156111735761117261230d565b5b14156111b4576040517f08c379a00000000000000000000000000000000000000000000000000000000081526004016111ab90611e2c565b60405180910390fd5b600360048111156111c8576111c761230d565b5b8160048111156111db576111da61230d565b5b141561121c576040517f08c379a000000000000000000000000000000000000000000000000000000000815260040161121390611e8c565b60405180910390fd5b60048081111561122f5761122e61230d565b5b8160048111156112425761124161230d565b5b1415611283576040517f08c379a000000000000000000000000000000000000000000000000000000000815260040161127a90611ecc565b60405180910390fd5b5b50565b60606000600283600261129a919061212d565b6112a491906120d7565b67ffffffffffffffff8111156112bd576112bc61236b565b5b6040519080825280601f01601f1916602001820160405280156112ef5781602001600182028036833780820191505090505b5090507f3000000000000000000000000000000000000000000000000000000000000000816000815181106113275761132661233c565b5b60200101907effffffffffffffffffffffffffffffffffffffffffffffffffffffffffffff1916908160001a9053507f78000000000000000000000000000000000000000000000000000000000000008160018151811061138b5761138a61233c565b5b60200101907effffffffffffffffffffffffffffffffffffffffffffffffffffffffffffff1916908160001a905350600060018460026113cb919061212d565b6113d591906120d7565b90505b6001811115611475577f3031323334353637383961626364656600000000000000000000000000000000600f8616601081106114175761141661233c565b5b1a60f81b82828151811061142e5761142d61233c565b5b60200101907effffffffffffffffffffffffffffffffffffffffffffffffffffffffffffff1916908160001a905350600485901c94508061146e90612279565b90506113d8565b50600084146114b9576040517f08c379a00000000000000000000000000000000000000000000000000000000081526004016114b090611e0c565b60405180910390fd5b8091505092915050565b6000807f7fffffffffffffffffffffffffffffff5d576e7357a4501ddfe92f46681b20a08360001c11156114fe5760006003915091506115c7565b601b8560ff16141580156115165750601c8560ff1614155b156115285760006004915091506115c7565b60006001878787876040516000815260200160405260405161154d9493929190611d6a565b6020604051602081039080840390855afa15801561156f573d6000803e3d6000fd5b505050602060405103519050600073ffffffffffffffffffffffffffffffffffffffff168173ffffffffffffffffffffffffffffffffffffffff1614156115be576000600192509250506115c7565b80600092509250505b94509492505050565b6000806000807f7fffffffffffffffffffffffffffffffffffffffffffffffffffffffffffffff85169150601b8560ff1c019050611610878288856114c3565b935093505050935093915050565b600061163161162c84612063565b61203e565b90508281526020810184848401111561164d5761164c61239f565b5b611658848285612237565b509392505050565b60008135905061166f81612683565b92915050565b6000813590506116848161269a565b92915050565b600081359050611699816126b1565b92915050565b6000813590506116ae816126c8565b92915050565b600082601f8301126116c9576116c861239a565b5b81356116d984826020860161161e565b91505092915050565b6000813590506116f1816126df565b92915050565b60006020828403121561170d5761170c6123a9565b5b600061171b84828501611660565b91505092915050565b60006020828403121561173a576117396123a9565b5b60006117488482850161168a565b91505092915050565b60008060408385031215611768576117676123a9565b5b60006117768582860161168a565b925050602061178785828601611660565b9150509250929050565b6000602082840312156117a7576117a66123a9565b5b60006117b58482850161169f565b91505092915050565b6000602082840312156117d4576117d36123a9565b5b60006117e2848285016116e2565b91505092915050565b60008060408385031215611802576118016123a9565b5b6000611810858286016116e2565b925050602061182185828601611675565b9150509250929050565b600080600080600080600060e0888a03121561184a576118496123a9565b5b60006118588a828b016116e2565b97505060206118698a828b016116e2565b965050604061187a8a828b01611660565b955050606061188b8a828b01611660565b945050608061189c8a828b016116e2565b93505060a06118ad8a828b016116e2565b92505060c088013567ffffffffffffffff8111156118ce576118cd6123a4565b5b6118da8a828b016116b4565b91505092959891949750929550565b60008060008060008060c08789031215611906576119056123a9565b5b600061191489828a016116e2565b965050602061192589828a016116e2565b955050604061193689828a01611660565b945050606061194789828a016116e2565b935050608061195889828a016116e2565b92505060a087013567ffffffffffffffff811115611979576119786123a4565b5b61198589828a016116b4565b9150509295509295509295565b61199b81612187565b82525050565b6119aa81612199565b82525050565b6119b9816121a5565b82525050565b6119d06119cb826121a5565b6122d4565b82525050565b60006119e182612094565b6119eb81856120aa565b93506119fb818560208601612246565b611a04816123ae565b840191505092915050565b611a1881612225565b82525050565b6000611a298261209f565b611a3381856120bb565b9350611a43818560208601612246565b611a4c816123ae565b840191505092915050565b6000611a628261209f565b611a6c81856120cc565b9350611a7c818560208601612246565b80840191505092915050565b6000611a956018836120bb565b9150611aa0826123bf565b602082019050919050565b6000611ab86020836120bb565b9150611ac3826123e8565b602082019050919050565b6000611adb601f836120bb565b9150611ae682612411565b602082019050919050565b6000611afe601c836120cc565b9150611b098261243a565b601c82019050919050565b6000611b216019836120bb565b9150611b2c82612463565b602082019050919050565b6000611b446017836120bb565b9150611b4f8261248c565b602082019050919050565b6000611b676022836120bb565b9150611b72826124b5565b604082019050919050565b6000611b8a600f836120bb565b9150611b9582612504565b602082019050919050565b6000611bad6022836120bb565b9150611bb88261252d565b604082019050919050565b6000611bd0600d836120bb565b9150611bdb8261257c565b602082019050919050565b6000611bf36017836120cc565b9150611bfe826125a5565b601782019050919050565b6000611c16601f836120bb565b9150611c21826125ce565b602082019050919050565b6000611c396011836120cc565b9150611c44826125f7565b601182019050919050565b6000611c5c602f836120bb565b9150611c6782612620565b604082019050919050565b611c7b8161220e565b82525050565b611c8a81612218565b82525050565b6000611c9b82611af1565b9150611ca782846119bf565b60208201915081905092915050565b6000611cc182611be6565b9150611ccd8285611a57565b9150611cd882611c2c565b9150611ce48284611a57565b91508190509392505050565b6000602082019050611d056000830184611992565b92915050565b6000604082019050611d206000830185611992565b611d2d6020830184611c72565b9392505050565b6000602082019050611d4960008301846119a1565b92915050565b6000602082019050611d6460008301846119b0565b92915050565b6000608082019050611d7f60008301876119b0565b611d8c6020830186611c81565b611d9960408301856119b0565b611da660608301846119b0565b95945050505050565b6000602082019050611dc46000830184611a0f565b92915050565b60006020820190508181036000830152611de48184611a1e565b905092915050565b60006020820190508181036000830152611e0581611a88565b9050919050565b60006020820190508181036000830152611e2581611aab565b9050919050565b60006020820190508181036000830152611e4581611ace565b9050919050565b60006020820190508181036000830152611e6581611b14565b9050919050565b60006020820190508181036000830152611e8581611b37565b9050919050565b60006020820190508181036000830152611ea581611b5a565b9050919050565b60006020820190508181036000830152611ec581611b7d565b9050919050565b60006020820190508181036000830152611ee581611ba0565b9050919050565b60006020820190508181036000830152611f0581611bc3565b9050919050565b60006020820190508181036000830152611f2581611c09565b9050919050565b60006020820190508181036000830152611f4581611c4f565b9050919050565b6000602082019050611f616000830184611c72565b92915050565b600060c082019050611f7c6000830189611c72565b611f896020830188611c72565b611f966040830187611992565b611fa36060830186611992565b611fb06080830185611c72565b611fbd60a0830184611c72565b979650505050505050565b600060e082019050611fdd600083018a611c72565b611fea6020830189611c72565b611ff76040830188611992565b6120046060830187611992565b6120116080830186611c72565b61201e60a0830185611c72565b81810360c083015261203081846119d6565b905098975050505050505050565b6000612048612059565b905061205482826122a3565b919050565b6000604051905090565b600067ffffffffffffffff82111561207e5761207d61236b565b5b612087826123ae565b9050602081019050919050565b600081519050919050565b600081519050919050565b600082825260208201905092915050565b600082825260208201905092915050565b600081905092915050565b60006120e28261220e565b91506120ed8361220e565b9250827fffffffffffffffffffffffffffffffffffffffffffffffffffffffffffffffff03821115612122576121216122de565b5b828201905092915050565b60006121388261220e565b91506121438361220e565b9250817fffffffffffffffffffffffffffffffffffffffffffffffffffffffffffffffff048311821515161561217c5761217b6122de565b5b828202905092915050565b6000612192826121ee565b9050919050565b60008115159050919050565b6000819050919050565b60007fffffffff0000000000000000000000000000000000000000000000000000000082169050919050565b60008190506121e98261266f565b919050565b600073ffffffffffffffffffffffffffffffffffffffff82169050919050565b6000819050919050565b600060ff82169050919050565b6000612230826121db565b9050919050565b82818337600083830152505050565b60005b83811015612264578082015181840152602081019050612249565b83811115612273576000848401525b50505050565b60006122848261220e565b91506000821415612298576122976122de565b5b600182039050919050565b6122ac826123ae565b810181811067ffffffffffffffff821117156122cb576122ca61236b565b5b80604052505050565b6000819050919050565b7f4e487b7100000000000000000000000000000000000000000000000000000000600052601160045260246000fd5b7f4e487b7100000000000000000000000000000000000000000000000000000000600052602160045260246000fd5b7f4e487b7100000000000000000000000000000000000000000000000000000000600052603260045260246000fd5b7f4e487b7100000000000000000000000000000000000000000000000000000000600052604160045260246000fd5b600080fd5b600080fd5b600080fd5b600080fd5b6000601f19601f8301169050919050565b7f45434453413a20696e76616c6964207369676e61747572650000000000000000600082015250565b7f537472696e67733a20686578206c656e67746820696e73756666696369656e74600082015250565b7f45434453413a20696e76616c6964207369676e6174757265206c656e67746800600082015250565b7f19457468657265756d205369676e6564204d6573736167653a0a333200000000600082015250565b7f7377617020737461747573206d75737420626520454d50545900000000000000600082015250565b7f5f636861696e546f206973206e6f7420616c6c6f776564000000000000000000600082015250565b7f45434453413a20696e76616c6964207369676e6174757265202773272076616c60008201527f7565000000000000000000000000000000000000000000000000000000000000602082015250565b7f77726f6e672076616c696461746f720000000000000000000000000000000000600082015250565b7f45434453413a20696e76616c6964207369676e6174757265202776272076616c60008201527f7565000000000000000000000000000000000000000000000000000000000000602082015250565b7f77726f6e6720636861696e496400000000000000000000000000000000000000600082015250565b7f416363657373436f6e74726f6c3a206163636f756e7420000000000000000000600082015250565b7f5265656e7472616e637947756172643a207265656e7472616e742063616c6c00600082015250565b7f206973206d697373696e6720726f6c6520000000000000000000000000000000600082015250565b7f416363657373436f6e74726f6c3a2063616e206f6e6c792072656e6f756e636560008201527f20726f6c657320666f722073656c660000000000000000000000000000000000602082015250565b600381106126805761267f61230d565b5b50565b61268c81612187565b811461269757600080fd5b50565b6126a381612199565b81146126ae57600080fd5b50565b6126ba816121a5565b81146126c557600080fd5b50565b6126d1816121af565b81146126dc57600080fd5b50565b6126e88161220e565b81146126f357600080fd5b5056fea2646970667358221220655e0a543bc2991b0825fa00961ef87ca95d67b53e83dd7b9cc5dff8b69df88664736f6c63430008060033",
  "linkReferences": {},
  "deployedLinkReferences": {}
}